S01900004348414D5F6F7074696D697A6174696F6E2E737265636C
S21400000045C000005AC0000058C0000056C000009E
S21400001054C0000052C0000050C000004EC0000097
S2140000204CC000004AC0000048C0000046C00000A7
S21400003044C0000042C0000040C000003EC00000B7
S2140000403CC000003AC0000038C0000036C00000C7
S21400005034C0000032C0000030C000002EC00000D7
S2140000602CC000002AC0000028C0000026C00000E7
S21400007024C0000022C0000020C000001EC00000F7
S2140000801CC000001AC0000018C0000011241FBECB
S214000090CFEFD0E1DEBFCDBF11E0A0E0B1E0EEE7EC
S2140000A0F3E100E00BBF02C007900D92A036B10747
S2140000B0D9F70E94B7090C94BD09A2CF2F923F92A0
S2140000C08F929F92AF92BF92CF92DF92EF92FF9263
S2140000D00F931F93CF93DF93EC01DB01FA012D9171
S2140000E03D914D915D916D917D918D919D918D90FC
S2140000F09D90AD90BD90CD90DD90ED90FD90AF932E
S214000100BF9310E70027E05E1901DA010290A025F0
S21400011002903024029020240290B025C0FAF69473
S214000120E794D794C794F7F8CB1AD208E308FA0AEC
S2140001301A95C1261601D701220C331CAA1FBB1F15
S214000140211C0290B0250290A02502903024029037
S21400015020249218A308BA0A8B0A1A95912614012D
S214000160D5010290B0250290A0250290302402907E
S214000170202460FB969587957795679597F9621981
S21400018073098A0B9B0B1A9561271B01DC01220C55
S214000190331CAA1FBB1F211C0290B0250290A0256D
S2140001A00290302402902024321943095A0B2B0B5C
S2140001B01A9531271901DA010290B0250290A02580
S2140001C00290302402902024C0FAF694E794D79444
S2140001D0C794F7F8C218D308EA0AFB0A1A95C1268C
S2140001E01601D701220C331CAA1FBB1F211C02902C
S2140001F0B0250290A0250290302402902024A21858
S214000200B3088A0A9B0A1501540141011A958126F2
S2140002102B2C382CA92DBA2D0290B0250290A025A3
S214000220029030240290202460FB9695879577955F
S214000230679597F9621973098A0B9B0B1A956127C4
S2140002401B01DC01220C331CAA1FBB1F211C0290C1
S214000250B0250290A0250290302402902024421956
S21400026053092A0B3B0B1A01A90191011A95212764
S214000270101349CFBF91AF9129933993499359935E
S214000280699379938993999389929992A992B9924D
S214000290C992D992E992F992DF91CF911F910F916D
S2140002A0FF90EF90DF90CF90BF90AF909F908F9091
S2140002B03F902F9008952F923F928F929F92AF92E9
S2140002C0BF92CF92DF92EF92FF920F931F93CF933E
S2140002D0DF93EC01DB01FA012D913D914D915D918B
S2140002E06D917D918D919D918D909D90AD90BD90DD
S2140002F0CD90DD90ED90FD90AF93BF93112700E772
S214000300EF711B01DC01220C331CAA1FBB1F211C32
S21400031001902024019030240190A0250190B02562
S2140003202127220D331D4A1F5B1F13951401D5018B
S2140003300190B02501902024019030240190A02542
S21400034061276B0F721D831D9A1F660F771F881F0C
S214000350991F611D13951601D701220C331CAA1F85
S214000360BB1F211C01902024019030240190A02561
S2140003700190B0258126820C931CAA1EBB1E1395E5
S2140003801901DA010190A0250190B02501902024E2
S21400039001903024C126CA0EDB1EE21CF31CCC0CD6
S2140003A0DD1CEE1CFF1CC11C13951B01DC01220C7E
S2140003B0331CAA1FBB1F211C01902024019030244F
S2140003C00190A0250190B0255127520D231D3A1FFC
S2140003D04B1F19019A01A10113951401D501019033
S2140003E0A0250190B025019020240190302461279B
S2140003F06A0F7B1F821D931D660F771F881F991F2C
S214000400611D13951601D701220C331CAA1FBB1FB2
S214000410211C01902024019030240190A0250190F9
S214000420B025B126B20C831C9A1EAB1E14014501E2
S214000430510113951901DA010190B025019020248D
S214000440019030240190A025C126CB0ED21CE31CBF
S214000450FA1ECC0CDD1CEE1CFF1CC11C13951013E1
S2140004604FCFBF91AF91299339934993599369938D
S21400047079938993999389929992A992B992C992FC
S214000480D992E992F992DF91CF911F910F91FF9047
S214000490EF90DF90CF90BF90AF909F908F903F905F
S2140004A02F9008952F923F928F929F92AF92BF9275
S2140004B0CF92DF92EF92FF920F931F93CF93DF932B
S2140004C0EC01DB01FA012D913D914D915D916D910D
S2140004D07D918D919D918D909D90AD90BD90CD908C
S2140004E0DD90ED90FD90AF93BF9318E70027EF7374
S2140004F0E05E1901DA010290A025029030240290F5
S21400050020240290B025C0FAF694E794D794C794B6
S214000510F7F8CB1AD208E308FA0A1A95C12616018C
S214000520D701220C331CAA1FBB1F211C0290B0252A
S2140005300290A02502903024029020249218A3084E
S214000540BA0A8B0A1A9591261401D5010290B02595
S2140005500290A025029030240290202460FB9695FD
S21400056087957795679597F9621973098A0B9B0BA0
S2140005701A9561271B01DC01220C331CAA1FBB1F26
S214000580211C0290B0250290A025029030240290F3
S2140005902024321943095A0B2B0B1A9531271901BF
S2140005A0DA010290B0250290A02502903024029035
S2140005B02024C0FAF694E794D794C794F7F8C218A4
S2140005C0D308EA0AFB0A1A95C1261601D701220C9F
S2140005D0331CAA1FBB1F211C0290B0250290A02529
S2140005E00290302402902024A218B3088A0A9B0A9C
S2140005F01501540141011A9581262B2C382CA92D62
S214000600BA2D0290B0250290A025029030240290C8
S214000610202460FB969587957795679597F96219DC
S21400062073098A0B9B0B1A9561271B01DC01220CB0
S214000630331CAA1FBB1F211C0290B0250290A025C8
S2140006400290302402902024421953092A0B3B0BB7
S2140006501A01A90191011A952127E05E101347CFD0
S214000660BF91AF912993399349935993699379939D
S2140006708993999389929992A992B992C992D9929B
S214000680E992F992DF91CF911F910F91FF90EF9031
S214000690DF90CF90BF90AF909F908F903F902F901D
S2140006A008952F923F928F929F92AF92BF92CF92D1
S2140006B0DF92EF92FF920F931F93CF93DF93EC019D
S2140006C0DB01FA012D913D914D915D916D917D91EA
S2140006D08D919D918D909D90AD90BD90CD90DD902B
S2140006E0ED90FD90AF93BF93112708E7EF731B01C2
S2140006F0DC01220C331CAA1FBB1F211C01902024E6
S214000700019030240190A0250190B0252127220DCC
S214000710331D4A1F5B1F13951401D5010190B025A8
S21400072001902024019030240190A02561276B0FB2
S214000730721D831D9A1F660F771F881F991F611DE4
S21400074013951601D701220C331CAA1FBB1F211CB0
S21400075001902024019030240190A0250190B0251E
S2140007608126820C931CAA1EBB1E13951901DA0162
S2140007700190A0250190B0250190202401903024FE
S214000780C126CA0EDB1EE21CF31CCC0CDD1CEE1CC4
S214000790FF1CC11C13951B01DC01220C331CAA1F75
S2140007A0BB1F211C01902024019030240190A0251D
S2140007B00190B0255127520D231D3A1F4B1F1901DA
S2140007C09A01A10113951401D5010190A02501906D
S2140007D0B025019020240190302461276A0F7B1FEA
S2140007E0821D931D660F771F881F991F611D139525
S2140007F01601D701220C331CAA1FBB1F211C019017
S2140008002024019030240190A0250190B025B12627
S214000810B20C831C9A1EAB1E1401450151011395A0
S2140008201901DA010190B0250190202401903024AE
S2140008300190A025C126CB0ED21CE31CFA1ECC0CC0
S214000840DD1CEE1CFF1CC11C139510134FCFBF916F
S214000850AF912993399349935993699379938993DF
S214000860999389929992A992B992C992D992E9924A
S214000870F992DF91CF911F910F91FF90EF90DF904B
S214000880CF90BF90AF909F908F902F903F900895FD
S21400089010132CCFBF91AF91299339934993599355
S2140008A0699379938993999389929992A992B99227
S2140008B0C992D992E992F992DF91CF911F910F9147
S2140008C0FF90EF90DF90CF90BF90AF909F908F906B
S2140008D03F902F9008950F931F93CF93DF93EC01D3
S2140008E0DB01FA012D913D914D915D916D917D91C8
S2140008F08D919D91AF93BF9318E50027EF71E05F50
S214000900A32FB22F0290B0250290A02580FB9695CB
S214000910879597F98A1B9B0B1A958127DC01AA0FEE
S214000920BB1FA11D0290B0250290A0257A1B6B0B61
S2140009301A957127DB010290B0250290A02540FB96
S2140009405695479557F94A1B5B0B1A954127DA01CE
S214000950AA0FBB1FA11D0290B0250290A0253A1B2E
S2140009602B0B1A953127D9010290B0250290A025AD
S21400097080FB9695879597F98A1B9B0B1A9581277E
S214000980DC01AA0FBB1FA11D0290B0250290A02576
S2140009906A1B7B0B1A956127A72FB62F0290B025EE
S2140009A00290A02540FB5795479557F94A1B5B0BCD
S2140009B01A954127DA01AA0FBB1FA11D0290B02588
S2140009C00290A0252A1B3B0B1A952127E05F1013E7
S2140009D095CFBF91AF9129933993499359936993D2
S2140009E0799389939993DF91CF911F910F910895F1
S2140009F00F931F93CF93DF93EC01DB01FA012D9148
S214000A003D914D915D916D917D918D919D91AF93AD
S214000A10BF93112708E5EF71DA01AA0FBB1FA11DCE
S214000A200190A0250190B02521272A0F3B1F139582
S214000A30DB010190B0250190A02541274B0F5A1FDE
S214000A40440F551F411D1395DC01AA0FBB1FA11DA6
S214000A500190A0250190B02561276A0F7B1F139592
S214000A60D9010190A0250190B02581278A0F9B1FF0
S214000A70880F991F811D1395DA01AA0FBB1FA11DB0
S214000A800190A0250190B02531273A0F2B1F139512
S214000A90DB010190A0250190B02541274A0F5B1F7E
S214000AA0440F551F411D1395DC01AA0FBB1FA11D46
S214000AB00190A0250190B02571277A0F6B1F139522
S214000AC0D9010190B0250190A02581278B0F9A1F90
S214000AD0880F991F811D139510139DCFBF91AF915D
S214000AE02993399349935993699379938993999361
S214000AF0DF91CF911F910F9108958F929F92AF92A1
S214000B00BF92CF92DF92EF92FF920F931F93CF93F5
S214000B10DF93FB01DC01BC01605F7F4F48E050E0E3
S214000B20208131818901000F111F011D20273127E7
S214000B3011963C932E938A01C1E00C27000F111FDB
S214000B40080F191FD180AD2CAA0CAA0CAA0CC080C5
S214000B50BC2CB294B694D7E0BD228A2C8B28CC0C41
S214000B60CC0CCC0CD294D694C7E0DC229C2C9D28CE
S214000B7028253925E801398328832081318132965A
S214000B803227232732270D911C91119720273127D2
S214000B902D933D934F5F5F4FA617B70709F6DF917A
S214000BA0CF911F910F91FF90EF90DF90CF90BF9065
S214000BB0AF909F908F9008956F927F928F929F92A2
S214000BC0AF92BF92CF92DF92EF92FF920F931F9356
S214000BD0CF93DF93CDB7DEB760970FB6F894DEBF3E
S214000BE00FBECDBFF90138E0DE0111965D01232F5F
S214000BF01D922A95E9F7DE01199601900D923A9515
S214000C00E1F756954795569547955695479541155C
S214000C10510579F148017B016C01440F551F440FC3
S214000C20551F440F551F3B01640E751E8E01075F4E
S214000C301F4FA401B801C501DBDEF5019601A7012F
S214000C409191DA018D91AD018927D9018D939D018E
S214000C500E171F07A9F789859A8501969A878987AF
S214000C60B8E0EB0EF11C28E0C20ED11CE614F70427
S214000C7001F760960FB6F894DEBF0FBECDBFDF91CA
S214000C80CF911F910F91FF90EF90DF90CF90BF9084
S214000C90AF909F908F907F906F9008954F925F9245
S214000CA06F927F928F929F92AF92BF92CF92DF9277
S214000CB0EF92FF920F931F93CF93DF93EB01DC012C
S214000CC07C0110E1E10EF11C24E030E06E01488169
S214000CD059816A817B814A015B01880C991CAA1C98
S214000CE0BB1C811C482559256A257B254D935D93A1
S214000CF06D937C931397F90111E0E127EE0FFF1F28
S214000D00EE0FFF1FE80FF91F89909990A990B990F0
S214000D10240135010BE0440C551C661C771C0A9513
S214000D20D1F715E1B694A794979487941A95D1F7BE
S214000D3084289528A628B72884269526A626B7268A
S214000D4080829182A282B382F601408151816281C3
S214000D507381F42F472F762F652F5F2F8D909D90F0
S214000D60AD90BC901397482559256A257B254D9351
S214000D705D936D937D932F5F3F4FAE15BF0509F0D2
S214000D80A5CFDF91CF911F910F91FF90EF90DF904D
S214000D90CF90BF90AF909F908F907F906F905F9016
S214000DA04F9008956F927F928F929F92AF92BF92CC
S214000DB0CF92DF92EF92FF920F931F93CF93DF9322
S214000DC0CDB7DEB7A0970FB6F894DEBF0FBECDBF87
S214000DD0F90130E1DE0111965D01232F1D922A955F
S214000DE0E9F7DE01519601900D923A95E1F752959A
S214000DF042954F7045275F7045274115510579F19B
S214000E0048017B016C0142955295507F5427407FE4
S214000E1054273B01640E751E8E010F5E1F4FA40102
S214000E20B801C50148DAF5019601A7019191DA01EA
S214000E308D91AD018927D9018D939D010E171F074E
S214000E40A9F789899A8901969A8B898BB0E1EB0E6E
S214000E50F11C20E1C20ED11CE614F70401F7A0969F
S214000E600FB6F894DEBF0FBECDBFDF91CF911F91B6
S214000E700F91FF90EF90DF90CF90BF90AF909F9034
S214000E808F907F906F9008954F925F926F927F92AF
S214000E908F929F92AF92BF92CF92DF92EF92FF9285
S214000EA00F931F93CF93DF93EB01DC017C0110E2DD
S214000EB0E10EF11C28E030E06E01488159816A811C
S214000EC07B814A015B01880C991CAA1CBB1C811CF7
S214000ED0482559256A257B254D935D936D937C9314
S214000EE01397F90111E0E127EE0FFF1FEE0FFF1F2A
S214000EF0E80FF91F89909990A990B99024013501BF
S214000F000BE0440C551C661C771C0A95D1F715E1BE
S214000F10B694A794979487941A95D1F78428952821
S214000F20A628B72884269526A626B72680829182EC
S214000F30A282B382F6014081518162817381F42FCF
S214000F40472F762F652F5F2F8D909D90AD90BC908C
S214000F501397482559256A257B254D935D936D93F8
S214000F607D932F5F3F4FAE15BF0509F0A5CFDF91EC
S214000F70CF911F910F91FF90EF90DF90CF90BF9091
S214000F80AF909F908F907F906F905F904F90089556
S214000F906F927F928F929F92AF92BF92CF92DF9284
S214000FA0EF92FF920F931F93CF93DF93CDB7DEB7E9
S214000FB0A0970FB6F894DEBF0FBECDBFF90130E1A3
S214000FC0DE0111965D01232F1D922A95E9F7DE01B9
S214000FD0519601900D923A95E1F7529542954F70D1
S214000FE045275F7045274115510579F148017B017A
S214000FF06C0142955295507F5427407F54273B0101
S214001000640E751E8E010F5E1F4FA401B801C50148
S21400101048DBF5019601A7019191DA018D91AD01AA
S2140010208927D9018D939D010E171F07A9F7898976
S2140010309A8901969A8B898BB0E1EB0EF11C20E120
S214001040C20ED11CE614F70401F7A0960FB6F8946A
S214001050DEBF0FBECDBFDF91CF911F910F91FF90E6
S214001060EF90DF90CF90BF90AF909F908F907F9043
S2140010706F900895AF92BF92CF92DF92EF92FF9259
S2140010800F931F93CF93DF93CDB7DEB7E8970FB6D6
S214001090F894DEBF0FBECDBF80E1E0E0F1E0DE01F8
S2140010A0119601900D928A95E1F788E0E0E1F1E073
S2140010B0DE01D19601900D928A95E1F788E0E8E18D
S2140010C0F1E0DE01999601900D928A95E1F788E0AD
S2140010D05E0191E2A90EB11CF501982F11929A9526
S2140010E0E9F77E01E9E1EE0EF11CF701982F119267
S2140010F09A95E9F76E01E1E1CE0ED11CF601119248
S2140011008A95E9F7BE016F5F7F4F80E094E0F5DCDB
S21400111040E054E0BE016F5C7F4FC70169DC40E0F1
S21400112054E0BE01675D7F4FC601D5DB00E014E0EA
S214001130950148E050E0BE016F5C7F4FC7013CDD83
S214001140950148E050E0B701C60136DDE8960FB6D7
S214001150F894DEBF0FBECDBFDF91CF911F910F91E8
S214001160FF90EF90DF90CF90BF90AF900895AF9232
S214001170BF92CF92DF92EF92FF920F931F93CF937F
S214001180DF93CDB7DEB7C056D1090FB6F894DEBFF1
S2140011900FBECDBF80E1E0E0F1E0DE01AF5ABF4F09
S2140011A001900D928A95E1F780E1E0E2F1E0DE0140
S2140011B0AF5BBF4F01900D928A95E1F780E18E01FB
S2140011C00F5C1F4FF801282F11922A95E9F77E0130
S2140011D031E2E30EF11CF701282F11922A95E9F768
S2140011E05E0131E1A30EB11CF501282F11922A955C
S2140011F0E9F7FE0131966F0111928A95E9F7BE0173
S2140012006F5A7F4F80E094E049DD40E054E0BE0135
S2140012106F5B7F4FC8014FD840E054E0B801CE0165
S2140012208F5B9F4F0E945E0000E014E0960140E155
S21400123050E0BE016F5B7F4FC701B4DD960140E111
S21400124050E0B701C501AEDDC05ADF4F0FB6F894C7
S214001250DEBF0FBECDBFDF91CF911F910F91FF90E4
S214001260EF90DF90CF90BF90AF900895AF92BF926F
S214001270CF92DF92EF92FF920F931F93CF93DF935D
S214001280CDB7DEB7C057D1090FB6F894DEBF0FBE94
S214001290CDBF80E2E0E3F1E0DE01119601900D9211
S2140012A08A95E1F780E1E0E2F1E0DE01AF59BF4F59
S2140012B001900D928A95E1F780E1E0E5F1E0DE012C
S2140012C0AF5ABF4F01900D928A95E1F780E17E01FB
S2140012D091E4E90EF11CF701982F11929A95E9F71F
S2140012E06E01E1E3CE0ED11CF601982F11929A956D
S2140012F0E9F75E01E1E2AE0EB11CF50111928A95A6
S214001300E9F7BE016F5F7F4F80E094E0BDDD40E00F
S21400131054E0BE016F597F4FC701C3D940E054E087
S214001320BE016F5A7F4FC601BDD800E014E095019C
S21400133040E150E0BE016F597F4FC70129DE95019D
S21400134040E150E0B701C60123DEC059DF4F0FB6BB
S214001350F894DEBF0FBECDBFDF91CF911F910F91E6
S214001360FF90EF90DF90CF90BF90AF90089582DE11
S212001370FEDE7CDF80E090E00895F894FFCF6C
S21400137E000102030405060708090A0B0C0D0E0FE2
S21400138E0011223344556677796904123F12A9E597
S21400139E00112233445566778899AABBCCDDEEFF42
S2140013AE000102030405060708090A0B0C0D0E0FB2
S2140013BEF0F1F2F3F4F5F6F7F8F9FAFBFCFDFEFFA2
S2140013CEDC77730251560B12959B838F75C05E5E4B
S2058004000076
S804000000FB
